{
  "contractName": "GunsContract",
  "abi": [
    {
      "inputs": [],
      "stateMutability": "nonpayable",
      "type": "constructor"
    },
    {
      "anonymous": false,
      "inputs": [
        {
          "indexed": false,
          "internalType": "uint256",
          "name": "id",
          "type": "uint256"
        },
        {
          "indexed": false,
          "internalType": "string",
          "name": "vendedor",
          "type": "string"
        },
        {
          "indexed": false,
          "internalType": "uint256",
          "name": "dniVendedor",
          "type": "uint256"
        },
        {
          "indexed": false,
          "internalType": "uint256",
          "name": "licenciaVendedor",
          "type": "uint256"
        },
        {
          "indexed": false,
          "internalType": "string",
          "name": "comprador",
          "type": "string"
        },
        {
          "indexed": false,
          "internalType": "uint256",
          "name": "dniComprador",
          "type": "uint256"
        },
        {
          "indexed": false,
          "internalType": "uint256",
          "name": "licenciaComprador",
          "type": "uint256"
        },
        {
          "indexed": false,
          "internalType": "uint256",
          "name": "FUT",
          "type": "uint256"
        },
        {
          "indexed": false,
          "internalType": "uint256",
          "name": "contrato",
          "type": "uint256"
        },
        {
          "indexed": false,
          "internalType": "uint256",
          "name": "inspeccion",
          "type": "uint256"
        },
        {
          "indexed": false,
          "internalType": "uint256",
          "name": "fecActualizacion",
          "type": "uint256"
        }
      ],
      "name": "GunBountyCreated",
      "type": "event"
    },
    {
      "inputs": [],
      "name": "dealsCounter",
      "outputs": [
        {
          "internalType": "uint256",
          "name": "",
          "type": "uint256"
        }
      ],
      "stateMutability": "view",
      "type": "function"
    },
    {
      "inputs": [
        {
          "internalType": "uint256",
          "name": "",
          "type": "uint256"
        }
      ],
      "name": "gunBounty",
      "outputs": [
        {
          "internalType": "uint256",
          "name": "id",
          "type": "uint256"
        },
        {
          "internalType": "string",
          "name": "vendedor",
          "type": "string"
        },
        {
          "internalType": "uint256",
          "name": "dniVendedor",
          "type": "uint256"
        },
        {
          "internalType": "uint256",
          "name": "licenciaVendedor",
          "type": "uint256"
        },
        {
          "internalType": "string",
          "name": "comprador",
          "type": "string"
        },
        {
          "internalType": "uint256",
          "name": "dniComprador",
          "type": "uint256"
        },
        {
          "internalType": "uint256",
          "name": "licenciaComprador",
          "type": "uint256"
        },
        {
          "internalType": "uint256",
          "name": "FUT",
          "type": "uint256"
        },
        {
          "internalType": "uint256",
          "name": "contrato",
          "type": "uint256"
        },
        {
          "internalType": "uint256",
          "name": "inspeccion",
          "type": "uint256"
        },
        {
          "internalType": "uint256",
          "name": "fecActualizacion",
          "type": "uint256"
        }
      ],
      "stateMutability": "view",
      "type": "function"
    },
    {
      "inputs": [
        {
          "internalType": "string",
          "name": "_vendedor",
          "type": "string"
        },
        {
          "internalType": "uint256",
          "name": "_dniVendedor",
          "type": "uint256"
        },
        {
          "internalType": "uint256",
          "name": "_licenciaVendedor",
          "type": "uint256"
        },
        {
          "internalType": "string",
          "name": "_comprador",
          "type": "string"
        },
        {
          "internalType": "uint256",
          "name": "_dniComprador",
          "type": "uint256"
        },
        {
          "internalType": "uint256",
          "name": "_licenciaComprador",
          "type": "uint256"
        },
        {
          "internalType": "uint256",
          "name": "_FUT",
          "type": "uint256"
        },
        {
          "internalType": "uint256",
          "name": "_contrato",
          "type": "uint256"
        },
        {
          "internalType": "uint256",
          "name": "_inspeccion",
          "type": "uint256"
        }
      ],
      "name": "createGunBounty",
      "outputs": [],
      "stateMutability": "nonpayable",
      "type": "function"
    }
  ],
  "bytecode": "0x6080604052600060015534801561001557600080fd5b503373ffffffffffffffffffffffffffffffffffffffff1660008054906101000a90505050610973806100496000396000f3fe608060405234801561001057600080fd5b50600436106100415760003560e01c8063ae1b94ee14610046578063d3c74bbe14610062578063d94a6ee81461009c575b600080fd5b610060600480360381019061005b91906104bf565b6100ba565b005b61007c600480360381019061007791906105c1565b610227565b6040516100939b9a99989796959493929190610651565b60405180910390f35b6100a4610391565b6040516100b19190610636565b60405180910390f35b600160008154809291906100cd9061082b565b919050555060405180610160016040528060015481526020018a81526020018981526020018881526020018781526020018681526020018581526020018481526020018381526020018281526020014281525060026000600154815260200190815260200160002060008201518160000155602082015181600101908051906020019061015b929190610397565b506040820151816002015560608201518160030155608082015181600401908051906020019061018c929190610397565b5060a0820151816005015560c0820151816006015560e082015181600701556101008201518160080155610120820151816009015561014082015181600a01559050507fa0835180f57342eebaea631ba537afc89f1f4ace370035a1a4bc0d9d5d51c0f16001548a8a8a8a8a8a8a8a8a426040516102149b9a99989796959493929190610651565b60405180910390a1505050505050505050565b6002602052806000526040600020600091509050806000015490806001018054610250906107c8565b80601f016020809104026020016040519081016040528092919081815260200182805461027c906107c8565b80156102c95780601f1061029e576101008083540402835291602001916102c9565b820191906000526020600020905b8154815290600101906020018083116102ac57829003601f168201915b5050505050908060020154908060030154908060040180546102ea906107c8565b80601f0160208091040260200160405190810160405280929190818152602001828054610316906107c8565b80156103635780601f1061033857610100808354040283529160200191610363565b820191906000526020600020905b81548152906001019060200180831161034657829003601f168201915b50505050509080600501549080600601549080600701549080600801549080600901549080600a015490508b565b60015481565b8280546103a3906107c8565b90600052602060002090601f0160209004810192826103c5576000855561040c565b82601f106103de57805160ff191683800117855561040c565b8280016001018555821561040c579182015b8281111561040b5782518255916020019190600101906103f0565b5b509050610419919061041d565b5090565b5b8082111561043657600081600090555060010161041e565b5090565b600061044d6104488461072f565b61070a565b90508281526020810184848401111561046957610468610906565b5b610474848285610786565b509392505050565b600082601f83011261049157610490610901565b5b81356104a184826020860161043a565b91505092915050565b6000813590506104b981610926565b92915050565b60008060008060008060008060006101208a8c0312156104e2576104e1610910565b5b60008a013567ffffffffffffffff811115610500576104ff61090b565b5b61050c8c828d0161047c565b995050602061051d8c828d016104aa565b985050604061052e8c828d016104aa565b97505060608a013567ffffffffffffffff81111561054f5761054e61090b565b5b61055b8c828d0161047c565b965050608061056c8c828d016104aa565b95505060a061057d8c828d016104aa565b94505060c061058e8c828d016104aa565b93505060e061059f8c828d016104aa565b9250506101006105b18c828d016104aa565b9150509295985092959850929598565b6000602082840312156105d7576105d6610910565b5b60006105e5848285016104aa565b91505092915050565b60006105f982610760565b610603818561076b565b9350610613818560208601610795565b61061c81610915565b840191505092915050565b6106308161077c565b82525050565b600060208201905061064b6000830184610627565b92915050565b600061016082019050610667600083018e610627565b8181036020830152610679818d6105ee565b9050610688604083018c610627565b610695606083018b610627565b81810360808301526106a7818a6105ee565b90506106b660a0830189610627565b6106c360c0830188610627565b6106d060e0830187610627565b6106de610100830186610627565b6106ec610120830185610627565b6106fa610140830184610627565b9c9b505050505050505050505050565b6000610714610725565b905061072082826107fa565b919050565b6000604051905090565b600067ffffffffffffffff82111561074a576107496108d2565b5b61075382610915565b9050602081019050919050565b600081519050919050565b600082825260208201905092915050565b6000819050919050565b82818337600083830152505050565b60005b838110156107b3578082015181840152602081019050610798565b838111156107c2576000848401525b50505050565b600060028204905060018216806107e057607f821691505b602082108114156107f4576107f36108a3565b5b50919050565b61080382610915565b810181811067ffffffffffffffff82111715610822576108216108d2565b5b80604052505050565b60006108368261077c565b91507fffffffffffffffffffffffffffffffffffffffffffffffffffffffffffffffff82141561086957610868610874565b5b600182019050919050565b7f4e487b7100000000000000000000000000000000000000000000000000000000600052601160045260246000fd5b7f4e487b7100000000000000000000000000000000000000000000000000000000600052602260045260246000fd5b7f4e487b7100000000000000000000000000000000000000000000000000000000600052604160045260246000fd5b600080fd5b600080fd5b600080fd5b600080fd5b6000601f19601f8301169050919050565b61092f8161077c565b811461093a57600080fd5b5056fea2646970667358221220c23941db16f27d746e586f722e2f90a3e4ff6deee1b5c6fdf34432e0f2e393b864736f6c63430008060033",
  "immutableReferences": {},
  "source": "// SPDX-License-Identifier: MIT\r\npragma solidity ^0.8.6;\r\n\r\ncontract GunsContract{\r\n    address myOwner;\r\n    uint public dealsCounter = 0;\r\n\r\n    modifier onlyOwner(){\r\n        require(msg.sender == myOwner);\r\n        _;\r\n    }\r\n    constructor(){\r\n        myOwner == msg.sender;\r\n    }\r\n\r\n    struct GunBounty{\r\n        uint id;\r\n        string vendedor;\r\n        uint dniVendedor;\r\n        uint licenciaVendedor;\r\n        string comprador;\r\n        uint dniComprador;\r\n        uint licenciaComprador;\r\n        uint FUT;\r\n        uint contrato;\r\n        uint inspeccion;\r\n        uint fecActualizacion;\r\n    }\r\n\r\n    event GunBountyCreated(\r\n        uint id,\r\n        string vendedor,\r\n        uint dniVendedor,\r\n        uint licenciaVendedor,\r\n        string comprador,\r\n        uint dniComprador,\r\n        uint licenciaComprador,\r\n        uint FUT,\r\n        uint contrato,\r\n        uint inspeccion,\r\n        uint fecActualizacion\r\n    );\r\n\r\n    mapping (uint => GunBounty) public gunBounty;\r\n\r\n    //public --> pasar datos\r\n    //view --> solo visibilidad\r\n    function createGunBounty (string memory _vendedor,uint _dniVendedor,uint _licenciaVendedor,string memory _comprador,uint _dniComprador, uint _licenciaComprador, uint _FUT,uint _contrato,uint _inspeccion) public{\r\n        dealsCounter++;\r\n        gunBounty[dealsCounter] = GunBounty(dealsCounter,_vendedor,_dniVendedor,_licenciaVendedor,_comprador,_dniComprador,_licenciaComprador,_FUT,_contrato,_inspeccion,block.timestamp);\r\n        emit GunBountyCreated(\r\n            dealsCounter,\r\n            _vendedor,\r\n            _dniVendedor,\r\n            _licenciaVendedor,\r\n            _comprador,\r\n            _dniComprador,\r\n            _licenciaComprador,\r\n            _FUT,\r\n            _contrato,\r\n            _inspeccion,\r\n            block.timestamp\r\n        );\r\n    }\r\n\r\n\r\n\r\n\r\n}",
  "sourcePath": "D:\\9vo Ciclo\\SEMINARIO DE INVESTIGACION I\\VSCode\\sem_inv\\contracts\\GunsContract.sol",
  "compiler": {
    "name": "solc",
    "version": "0.8.6+commit.11564f7e.Emscripten.clang"
  },
  "schemaVersion": "3.4.7",
  "updatedAt": "2022-07-10T07:53:33.447Z",
  "devdoc": {
    "kind": "dev",
    "methods": {},
    "version": 1
  },
  "userdoc": {
    "kind": "user",
    "methods": {},
    "version": 1
  }
}