{
  "contractName": "GunsContract",
  "abi": [
    {
      "inputs": [],
      "stateMutability": "nonpayable",
      "type": "constructor"
    },
    {
      "anonymous": false,
      "inputs": [
        {
          "indexed": false,
          "internalType": "uint256",
          "name": "id",
          "type": "uint256"
        },
        {
          "indexed": false,
          "internalType": "string",
          "name": "comprador",
          "type": "string"
        },
        {
          "indexed": false,
          "internalType": "string",
          "name": "vendedor",
          "type": "string"
        },
        {
          "indexed": false,
          "internalType": "uint256",
          "name": "numero_serie",
          "type": "uint256"
        },
        {
          "indexed": false,
          "internalType": "uint256",
          "name": "createdAt",
          "type": "uint256"
        }
      ],
      "name": "GunBountyCreated",
      "type": "event"
    },
    {
      "inputs": [
        {
          "internalType": "uint256",
          "name": "",
          "type": "uint256"
        }
      ],
      "name": "gunBounty",
      "outputs": [
        {
          "internalType": "uint256",
          "name": "id",
          "type": "uint256"
        },
        {
          "internalType": "string",
          "name": "comprador",
          "type": "string"
        },
        {
          "internalType": "string",
          "name": "vendedor",
          "type": "string"
        },
        {
          "internalType": "uint256",
          "name": "licenciaComprador",
          "type": "uint256"
        },
        {
          "internalType": "uint256",
          "name": "numero_serie",
          "type": "uint256"
        },
        {
          "internalType": "uint256",
          "name": "createdAt",
          "type": "uint256"
        }
      ],
      "stateMutability": "view",
      "type": "function",
      "constant": true
    },
    {
      "inputs": [],
      "name": "tasksCounter",
      "outputs": [
        {
          "internalType": "uint256",
          "name": "",
          "type": "uint256"
        }
      ],
      "stateMutability": "view",
      "type": "function",
      "constant": true
    },
    {
      "inputs": [
        {
          "internalType": "string",
          "name": "_vendedor",
          "type": "string"
        },
        {
          "internalType": "uint256",
          "name": "_dniVendedor",
          "type": "uint256"
        },
        {
          "internalType": "uint256",
          "name": "_licenciaVendedor",
          "type": "uint256"
        },
        {
          "internalType": "uint256",
          "name": "_dniComprador",
          "type": "uint256"
        },
        {
          "internalType": "uint256",
          "name": "_licenciaComprador",
          "type": "uint256"
        },
        {
          "internalType": "string",
          "name": "_comprador",
          "type": "string"
        },
        {
          "internalType": "uint256",
          "name": "_numero_serie",
          "type": "uint256"
        },
        {
          "internalType": "string",
          "name": "_state",
          "type": "string"
        }
      ],
      "name": "createGunBounty",
      "outputs": [],
      "stateMutability": "nonpayable",
      "type": "function"
    },
    {
      "inputs": [
        {
          "internalType": "uint256",
          "name": "_dni",
          "type": "uint256"
        },
        {
          "internalType": "uint256",
          "name": "_license",
          "type": "uint256"
        }
      ],
      "name": "licenseValidate",
      "outputs": [
        {
          "internalType": "bool",
          "name": "",
          "type": "bool"
        }
      ],
      "stateMutability": "pure",
      "type": "function",
      "constant": true
    },
    {
      "inputs": [
        {
          "internalType": "uint256",
          "name": "_dni",
          "type": "uint256"
        },
        {
          "internalType": "uint256",
          "name": "_gunLicense",
          "type": "uint256"
        }
      ],
      "name": "gunValidate",
      "outputs": [
        {
          "internalType": "bool",
          "name": "",
          "type": "bool"
        }
      ],
      "stateMutability": "pure",
      "type": "function",
      "constant": true
    },
    {
      "inputs": [
        {
          "internalType": "uint256",
          "name": "_dniComprador",
          "type": "uint256"
        },
        {
          "internalType": "uint256",
          "name": "_dniVendedor",
          "type": "uint256"
        },
        {
          "internalType": "string",
          "name": "_state",
          "type": "string"
        }
      ],
      "name": "documentsValidate",
      "outputs": [
        {
          "internalType": "bool",
          "name": "",
          "type": "bool"
        }
      ],
      "stateMutability": "pure",
      "type": "function",
      "constant": true
    }
  ],
  "bytecode": "0x6080604052600060015534801561001557600080fd5b5060006001819055503373ffffffffffffffffffffffffffffffffffffffff1660008054906101000a90505050610e4c806100516000396000f3fe608060405234801561001057600080fd5b50600436106100625760003560e01c806328fcc88e146100675780635698bac51461009757806385c3e723146100b3578063ae375382146100d1578063d3c74bbe14610101578063eb4deb4114610136575b600080fd5b610081600480360381019061007c919061083b565b610166565b60405161008e91906109aa565b60405180910390f35b6100b160048036038101906100ac9190610704565b6101a6565b005b6100bb6103ca565b6040516100c89190610a25565b60405180910390f35b6100eb60048036038101906100e6919061087b565b6103d0565b6040516100f891906109aa565b60405180910390f35b61011b6004803603810190610116919061080e565b610450565b60405161012d96959493929190610aa1565b60405180910390f35b610150600480360381019061014b919061083b565b61059c565b60405161015d91906109aa565b60405180910390f35b6000806001905060006001905081851415610199578084141561018e576001925050506101a0565b6000925050506101a0565b6000925050505b92915050565b600160008154809291906101b990610c3d565b919050555060006101ca888861059c565b905060006101d8878761059c565b905060006101e68a86610166565b905060006101f5898c876103d0565b90508380156102015750825b15610381578115610341578015610301576040518060c0016040528060015481526020018881526020018d81526020018981526020018781526020014281525060026000600154815260200190815260200160002060008201518160000155602082015181600101908051906020019061027c9291906105dc565b5060408201518160020190805190602001906102999291906105dc565b50606082015181600301556080820151816004015560a082015181600501559050507f94f0bb2792ac25ad8ba4cf220f3eddb3c61ee719c867cc27f076a32fa737aca6600154888e89426040516102f4959493929190610a40565b60405180910390a161033c565b6040517f08c379a000000000000000000000000000000000000000000000000000000000815260040161033390610a05565b60405180910390fd5b61037c565b6040517f08c379a0000000000000000000000000000000000000000000000000000000008152600401610373906109c5565b60405180910390fd5b6103bc565b6040517f08c379a00000000000000000000000000000000000000000000000000000000081526004016103b3906109e5565b60405180910390fd5b505050505050505050505050565b60015481565b60006001841480156103e25750600183145b15610444576040518060400160405280600181526020017f5300000000000000000000000000000000000000000000000000000000000000815250805190602001208280519060200120141561043b5760019050610449565b60009050610449565b600090505b9392505050565b600260205280600052604060002060009150905080600001549080600101805461047990610bda565b80601f01602080910402602001604051908101604052809291908181526020018280546104a590610bda565b80156104f25780601f106104c7576101008083540402835291602001916104f2565b820191906000526020600020905b8154815290600101906020018083116104d557829003601f168201915b50505050509080600201805461050790610bda565b80601f016020809104026020016040519081016040528092919081815260200182805461053390610bda565b80156105805780601f1061055557610100808354040283529160200191610580565b820191906000526020600020905b81548152906001019060200180831161056357829003601f168201915b5050505050908060030154908060040154908060050154905086565b60008060019050600060019050818514156105cf57808414156105c4576001925050506105d6565b6000925050506105d6565b6000925050505b92915050565b8280546105e890610bda565b90600052602060002090601f01602090048101928261060a5760008555610651565b82601f1061062357805160ff1916838001178555610651565b82800160010185558215610651579182015b82811115610650578251825591602001919060010190610635565b5b50905061065e9190610662565b5090565b5b8082111561067b576000816000905550600101610663565b5090565b600061069261068d84610b35565b610b10565b9050828152602081018484840111156106ae576106ad610d18565b5b6106b9848285610b98565b509392505050565b600082601f8301126106d6576106d5610d13565b5b81356106e684826020860161067f565b91505092915050565b6000813590506106fe81610dff565b92915050565b600080600080600080600080610100898b03121561072557610724610d22565b5b600089013567ffffffffffffffff81111561074357610742610d1d565b5b61074f8b828c016106c1565b98505060206107608b828c016106ef565b97505060406107718b828c016106ef565b96505060606107828b828c016106ef565b95505060806107938b828c016106ef565b94505060a089013567ffffffffffffffff8111156107b4576107b3610d1d565b5b6107c08b828c016106c1565b93505060c06107d18b828c016106ef565b92505060e089013567ffffffffffffffff8111156107f2576107f1610d1d565b5b6107fe8b828c016106c1565b9150509295985092959890939650565b60006020828403121561082457610823610d22565b5b6000610832848285016106ef565b91505092915050565b6000806040838503121561085257610851610d22565b5b6000610860858286016106ef565b9250506020610871858286016106ef565b9150509250929050565b60008060006060848603121561089457610893610d22565b5b60006108a2868287016106ef565b93505060206108b3868287016106ef565b925050604084013567ffffffffffffffff8111156108d4576108d3610d1d565b5b6108e0868287016106c1565b9150509250925092565b6108f381610b82565b82525050565b600061090482610b66565b61090e8185610b71565b935061091e818560208601610ba7565b61092781610d27565b840191505092915050565b600061093f603383610b71565b915061094a82610d38565b604082019050919050565b6000610962601d83610b71565b915061096d82610d87565b602082019050919050565b6000610985602883610b71565b915061099082610db0565b604082019050919050565b6109a481610b8e565b82525050565b60006020820190506109bf60008301846108ea565b92915050565b600060208201905081810360008301526109de81610932565b9050919050565b600060208201905081810360008301526109fe81610955565b9050919050565b60006020820190508181036000830152610a1e81610978565b9050919050565b6000602082019050610a3a600083018461099b565b92915050565b600060a082019050610a55600083018861099b565b8181036020830152610a6781876108f9565b90508181036040830152610a7b81866108f9565b9050610a8a606083018561099b565b610a97608083018461099b565b9695505050505050565b600060c082019050610ab6600083018961099b565b8181036020830152610ac881886108f9565b90508181036040830152610adc81876108f9565b9050610aeb606083018661099b565b610af8608083018561099b565b610b0560a083018461099b565b979650505050505050565b6000610b1a610b2b565b9050610b268282610c0c565b919050565b6000604051905090565b600067ffffffffffffffff821115610b5057610b4f610ce4565b5b610b5982610d27565b9050602081019050919050565b600081519050919050565b600082825260208201905092915050565b60008115159050919050565b6000819050919050565b82818337600083830152505050565b60005b83811015610bc5578082015181840152602081019050610baa565b83811115610bd4576000848401525b50505050565b60006002820490506001821680610bf257607f821691505b60208210811415610c0657610c05610cb5565b5b50919050565b610c1582610d27565b810181811067ffffffffffffffff82111715610c3457610c33610ce4565b5b80604052505050565b6000610c4882610b8e565b91507fffffffffffffffffffffffffffffffffffffffffffffffffffffffffffffffff821415610c7b57610c7a610c86565b5b600182019050919050565b7f4e487b7100000000000000000000000000000000000000000000000000000000600052601160045260246000fd5b7f4e487b7100000000000000000000000000000000000000000000000000000000600052602260045260246000fd5b7f4e487b7100000000000000000000000000000000000000000000000000000000600052604160045260246000fd5b600080fd5b600080fd5b600080fd5b600080fd5b6000601f19601f8301169050919050565b7f4552524f52203a20456c2061726d612061736f636961646120616c2076656e6460008201527f65646f72206e6f20657320636f72726563746100000000000000000000000000602082015250565b7f4552524f523a2056616c69646163696f6e206465206c6963656e636961000000600082015250565b7f4552524f52203a204e6f2073652068612076616c696461646f206c6f7320646f60008201527f63756d656e746f73000000000000000000000000000000000000000000000000602082015250565b610e0881610b8e565b8114610e1357600080fd5b5056fea2646970667358221220921a87b760e09ef213c19fdc9ef9683ebbd28baace0c07df58378947bc409c2d64736f6c63430008060033",
  "immutableReferences": {},
  "source": "// SPDX-License-Identifier: MIT\r\npragma solidity ^0.8.6;\r\n\r\ncontract GunsContract{\r\n    address myOwner;\r\n    uint256 public tasksCounter = 0;\r\n\r\n    modifier onlyOwner(){\r\n        require(msg.sender == myOwner);\r\n        _;\r\n    }\r\n    constructor(){\r\n        tasksCounter=0;\r\n        myOwner == msg.sender;\r\n    }\r\n    event GunBountyCreated(\r\n        uint256 id,\r\n        string comprador,\r\n        string vendedor,\r\n        uint numero_serie,\r\n        uint256 createdAt\r\n    );\r\n    struct GunBounty{\r\n        uint id;\r\n        string comprador;\r\n        string vendedor;\r\n        uint licenciaComprador;\r\n        uint numero_serie;\r\n        uint createdAt;\r\n    }\r\n    mapping (uint => GunBounty) public gunBounty;\r\n\r\n    //public --> pasar datos\r\n    //view --> solo visibilidad\r\n    function createGunBounty (string memory _vendedor,uint _dniVendedor,uint _licenciaVendedor,uint _dniComprador ,uint _licenciaComprador, \r\n    string memory _comprador, uint _numero_serie,string memory _state) public{\r\n        tasksCounter++;\r\n        bool condition= licenseValidate(_dniVendedor, _licenciaVendedor);\r\n        bool condition2 = licenseValidate(_dniComprador, _licenciaComprador);\r\n        bool condition3 = gunValidate(_dniVendedor, _numero_serie);\r\n        bool condition4 = documentsValidate(_dniComprador, _dniVendedor, _state);\r\n        if(condition && condition2){\r\n            if(condition3){\r\n                if(condition4){\r\n                    gunBounty[tasksCounter] = GunBounty(tasksCounter,_comprador,_vendedor,_licenciaComprador,_numero_serie,block.timestamp);\r\n                    emit GunBountyCreated(\r\n                        tasksCounter,\r\n                        _comprador,\r\n                        _vendedor,\r\n                        _numero_serie,\r\n                        block.timestamp\r\n                        );\r\n                }else{\r\n                    revert('ERROR : No se ha validado los documentos');\r\n                }\r\n            }\r\n            else{\r\n                revert('ERROR : El arma asociada al vendedor no es correcta');\r\n            }\r\n        }else{\r\n            revert('ERROR: Validacion de licencia');\r\n        }\r\n\r\n    }\r\n    \r\n    function licenseValidate(uint _dni, uint _license) public pure returns(bool) {\r\n        uint dni = 1; // Deberia hacerse fetch con la base de datos de SUCAMEC\r\n        uint license = 1;\r\n        if(_dni == dni){\r\n            if(_license == license){\r\n                return true;\r\n            }else{\r\n                return false;\r\n            }\r\n        }else{\r\n            return false;\r\n        }\r\n    }\r\n\r\n    function gunValidate(uint256 _dni,uint _gunLicense) public pure returns(bool) {\r\n        uint dni = 1; // Deberia hacerse fetch con la base de datos de SUCAMEC\r\n        uint gunLicense = 1;\r\n        if(_dni == dni){\r\n            if(_gunLicense == gunLicense){\r\n                return true;\r\n            }else{\r\n                return false;\r\n            }\r\n        }else{\r\n            return false;\r\n        }\r\n    }\r\n\r\n    function documentsValidate(uint _dniComprador,uint _dniVendedor,string memory _state) public pure returns(bool){\r\n        if(_dniComprador==1 && _dniVendedor==1){\r\n            if(keccak256(bytes(_state)) == keccak256(bytes(\"S\"))){\r\n                return true;\r\n            }else{\r\n                return false;\r\n            }\r\n        }else{\r\n            return false;\r\n        }\r\n    }\r\n\r\n\r\n}",
  "sourcePath": "D:\\9vo Ciclo\\SEMINARIO DE INVESTIGACION I\\VSCode\\sem_inv\\contracts\\GunsContract.sol",
  "compiler": {
    "name": "solc",
    "version": "0.8.6+commit.11564f7e.Emscripten.clang"
  },
  "schemaVersion": "3.4.7",
  "updatedAt": "2022-06-12T04:16:38.434Z",
  "networkType": "ethereum",
  "devdoc": {
    "kind": "dev",
    "methods": {},
    "version": 1
  },
  "userdoc": {
    "kind": "user",
    "methods": {},
    "version": 1
  }
}