{
  "contractName": "GunsContract",
  "abi": [
    {
      "anonymous": false,
      "inputs": [
        {
          "indexed": false,
          "internalType": "uint256",
          "name": "id",
          "type": "uint256"
        },
        {
          "indexed": false,
          "internalType": "string",
          "name": "vendedor",
          "type": "string"
        },
        {
          "indexed": false,
          "internalType": "uint256",
          "name": "dniVendedor",
          "type": "uint256"
        },
        {
          "indexed": false,
          "internalType": "uint256",
          "name": "licenciaVendedor",
          "type": "uint256"
        },
        {
          "indexed": false,
          "internalType": "uint256",
          "name": "numeroserie",
          "type": "uint256"
        },
        {
          "indexed": false,
          "internalType": "string",
          "name": "comprador",
          "type": "string"
        },
        {
          "indexed": false,
          "internalType": "uint256",
          "name": "dniComprador",
          "type": "uint256"
        },
        {
          "indexed": false,
          "internalType": "uint256",
          "name": "licenciaComprador",
          "type": "uint256"
        },
        {
          "indexed": false,
          "internalType": "uint256",
          "name": "FUT",
          "type": "uint256"
        },
        {
          "indexed": false,
          "internalType": "uint256",
          "name": "contrato",
          "type": "uint256"
        },
        {
          "indexed": false,
          "internalType": "uint256",
          "name": "inspeccion",
          "type": "uint256"
        },
        {
          "indexed": false,
          "internalType": "uint256",
          "name": "fecActualizacion",
          "type": "uint256"
        }
      ],
      "name": "GunBountyCreated",
      "type": "event"
    },
    {
      "inputs": [],
      "name": "dealsCounter",
      "outputs": [
        {
          "internalType": "uint256",
          "name": "",
          "type": "uint256"
        }
      ],
      "stateMutability": "view",
      "type": "function",
      "constant": true
    },
    {
      "inputs": [
        {
          "internalType": "uint256",
          "name": "",
          "type": "uint256"
        }
      ],
      "name": "gunBounty",
      "outputs": [
        {
          "internalType": "uint256",
          "name": "id",
          "type": "uint256"
        },
        {
          "internalType": "string",
          "name": "vendedor",
          "type": "string"
        },
        {
          "internalType": "uint256",
          "name": "dniVendedor",
          "type": "uint256"
        },
        {
          "internalType": "uint256",
          "name": "licenciaVendedor",
          "type": "uint256"
        },
        {
          "internalType": "uint256",
          "name": "numeroserie",
          "type": "uint256"
        },
        {
          "internalType": "string",
          "name": "comprador",
          "type": "string"
        },
        {
          "internalType": "uint256",
          "name": "dniComprador",
          "type": "uint256"
        },
        {
          "internalType": "uint256",
          "name": "licenciaComprador",
          "type": "uint256"
        },
        {
          "internalType": "uint256",
          "name": "FUT",
          "type": "uint256"
        },
        {
          "internalType": "uint256",
          "name": "contrato",
          "type": "uint256"
        },
        {
          "internalType": "uint256",
          "name": "inspeccion",
          "type": "uint256"
        },
        {
          "internalType": "uint256",
          "name": "fecActualizacion",
          "type": "uint256"
        }
      ],
      "stateMutability": "view",
      "type": "function",
      "constant": true
    },
    {
      "inputs": [
        {
          "internalType": "string",
          "name": "_vendedor",
          "type": "string"
        },
        {
          "internalType": "uint256",
          "name": "_dniVendedor",
          "type": "uint256"
        },
        {
          "internalType": "uint256",
          "name": "_licenciaVendedor",
          "type": "uint256"
        },
        {
          "internalType": "uint256",
          "name": "_numeroserie",
          "type": "uint256"
        },
        {
          "internalType": "string",
          "name": "_comprador",
          "type": "string"
        },
        {
          "internalType": "uint256",
          "name": "_dniComprador",
          "type": "uint256"
        },
        {
          "internalType": "uint256",
          "name": "_licenciaComprador",
          "type": "uint256"
        },
        {
          "internalType": "uint256",
          "name": "_FUT",
          "type": "uint256"
        },
        {
          "internalType": "uint256",
          "name": "_contrato",
          "type": "uint256"
        },
        {
          "internalType": "uint256",
          "name": "_inspeccion",
          "type": "uint256"
        }
      ],
      "name": "createGunBounty",
      "outputs": [],
      "stateMutability": "nonpayable",
      "type": "function"
    }
  ],
  "bytecode": "0x6080604052600060015534801561001557600080fd5b506109b2806100256000396000f3fe608060405234801561001057600080fd5b50600436106100415760003560e01c806368cd12a014610046578063d3c74bbe14610062578063d94a6ee81461009d575b600080fd5b610060600480360381019061005b91906104da565b6100bb565b005b61007c600480360381019061007791906105f1565b61023c565b6040516100949c9b9a99989796959493929190610681565b60405180910390f35b6100a56103ac565b6040516100b29190610666565b60405180910390f35b600160008154809291906100ce9061086a565b919050555060405180610180016040528060015481526020018b81526020018a8152602001898152602001888152602001878152602001868152602001858152602001848152602001838152602001828152602001428152506002600060015481526020019081526020016000206000820151816000015560208201518160010190805190602001906101629291906103b2565b5060408201518160020155606082015181600301556080820151816004015560a082015181600501908051906020019061019d9291906103b2565b5060c0820151816006015560e082015181600701556101008201518160080155610120820151816009015561014082015181600a015561016082015181600b01559050507f6f74a4fb5717162e4760f44cbdd00c69906d3150be89a24e3f8c9e74282b1e766001548b8b8b8b8b8b8b8b8b8b426040516102289c9b9a99989796959493929190610681565b60405180910390a150505050505050505050565b600260205280600052604060002060009150905080600001549080600101805461026590610807565b80601f016020809104026020016040519081016040528092919081815260200182805461029190610807565b80156102de5780601f106102b3576101008083540402835291602001916102de565b820191906000526020600020905b8154815290600101906020018083116102c157829003601f168201915b50505050509080600201549080600301549080600401549080600501805461030590610807565b80601f016020809104026020016040519081016040528092919081815260200182805461033190610807565b801561037e5780601f106103535761010080835404028352916020019161037e565b820191906000526020600020905b81548152906001019060200180831161036157829003601f168201915b50505050509080600601549080600701549080600801549080600901549080600a01549080600b015490508c565b60015481565b8280546103be90610807565b90600052602060002090601f0160209004810192826103e05760008555610427565b82601f106103f957805160ff1916838001178555610427565b82800160010185558215610427579182015b8281111561042657825182559160200191906001019061040b565b5b5090506104349190610438565b5090565b5b80821115610451576000816000905550600101610439565b5090565b60006104686104638461076e565b610749565b90508281526020810184848401111561048457610483610945565b5b61048f8482856107c5565b509392505050565b600082601f8301126104ac576104ab610940565b5b81356104bc848260208601610455565b91505092915050565b6000813590506104d481610965565b92915050565b6000806000806000806000806000806101408b8d0312156104fe576104fd61094f565b5b60008b013567ffffffffffffffff81111561051c5761051b61094a565b5b6105288d828e01610497565b9a505060206105398d828e016104c5565b995050604061054a8d828e016104c5565b985050606061055b8d828e016104c5565b97505060808b013567ffffffffffffffff81111561057c5761057b61094a565b5b6105888d828e01610497565b96505060a06105998d828e016104c5565b95505060c06105aa8d828e016104c5565b94505060e06105bb8d828e016104c5565b9350506101006105cd8d828e016104c5565b9250506101206105df8d828e016104c5565b9150509295989b9194979a5092959850565b6000602082840312156106075761060661094f565b5b6000610615848285016104c5565b91505092915050565b60006106298261079f565b61063381856107aa565b93506106438185602086016107d4565b61064c81610954565b840191505092915050565b610660816107bb565b82525050565b600060208201905061067b6000830184610657565b92915050565b600061018082019050610697600083018f610657565b81810360208301526106a9818e61061e565b90506106b8604083018d610657565b6106c5606083018c610657565b6106d2608083018b610657565b81810360a08301526106e4818a61061e565b90506106f360c0830189610657565b61070060e0830188610657565b61070e610100830187610657565b61071c610120830186610657565b61072a610140830185610657565b610738610160830184610657565b9d9c50505050505050505050505050565b6000610753610764565b905061075f8282610839565b919050565b6000604051905090565b600067ffffffffffffffff82111561078957610788610911565b5b61079282610954565b9050602081019050919050565b600081519050919050565b600082825260208201905092915050565b6000819050919050565b82818337600083830152505050565b60005b838110156107f25780820151818401526020810190506107d7565b83811115610801576000848401525b50505050565b6000600282049050600182168061081f57607f821691505b60208210811415610833576108326108e2565b5b50919050565b61084282610954565b810181811067ffffffffffffffff8211171561086157610860610911565b5b80604052505050565b6000610875826107bb565b91507fffffffffffffffffffffffffffffffffffffffffffffffffffffffffffffffff8214156108a8576108a76108b3565b5b600182019050919050565b7f4e487b7100000000000000000000000000000000000000000000000000000000600052601160045260246000fd5b7f4e487b7100000000000000000000000000000000000000000000000000000000600052602260045260246000fd5b7f4e487b7100000000000000000000000000000000000000000000000000000000600052604160045260246000fd5b600080fd5b600080fd5b600080fd5b600080fd5b6000601f19601f8301169050919050565b61096e816107bb565b811461097957600080fd5b5056fea2646970667358221220239b6281e25d00947bea27f5b293f374b278278f929c618d1192edf3c7003f1564736f6c63430008060033",
  "immutableReferences": {},
  "source": "// SPDX-License-Identifier: MIT\r\npragma solidity ^0.8.6;\r\n\r\ncontract GunsContract{\r\n    address myOwner;\r\n    uint public dealsCounter = 0;\r\n\r\n    struct GunBounty{\r\n        uint id;\r\n        string vendedor;\r\n        uint dniVendedor;\r\n        uint licenciaVendedor;\r\n        uint numeroserie;\r\n        string comprador;\r\n        uint dniComprador;\r\n        uint licenciaComprador;\r\n        uint FUT;\r\n        uint contrato;\r\n        uint inspeccion;\r\n        uint fecActualizacion;\r\n    }\r\n\r\n    event GunBountyCreated(\r\n        uint id,\r\n        string vendedor,\r\n        uint dniVendedor,\r\n        uint licenciaVendedor,\r\n        uint numeroserie,\r\n        string comprador,\r\n        uint dniComprador,\r\n        uint licenciaComprador,\r\n        uint FUT,\r\n        uint contrato,\r\n        uint inspeccion,\r\n        uint fecActualizacion\r\n    );\r\n\r\n    mapping (uint => GunBounty) public gunBounty;\r\n\r\n    //public --> pasar datos\r\n    //view --> solo visibilidad\r\n    function createGunBounty (string memory _vendedor,uint _dniVendedor,uint _licenciaVendedor,uint _numeroserie,string memory _comprador,uint _dniComprador, uint _licenciaComprador, uint _FUT,uint _contrato,uint _inspeccion) public{\r\n        dealsCounter++;\r\n        gunBounty[dealsCounter] = GunBounty(dealsCounter,_vendedor,_dniVendedor,_licenciaVendedor,_numeroserie,_comprador,_dniComprador,_licenciaComprador,_FUT,_contrato,_inspeccion,block.timestamp);\r\n        emit GunBountyCreated(\r\n            dealsCounter,\r\n            _vendedor,\r\n            _dniVendedor,\r\n            _licenciaVendedor,\r\n            _numeroserie,\r\n            _comprador,\r\n            _dniComprador,\r\n            _licenciaComprador,\r\n            _FUT,\r\n            _contrato,\r\n            _inspeccion,\r\n            block.timestamp\r\n        );\r\n    }\r\n\r\n    \r\n\r\n\r\n\r\n\r\n\r\n}",
  "sourcePath": "D:\\9vo Ciclo\\SEMINARIO DE INVESTIGACION I\\VSCode\\sem_inv\\contracts\\GunsContract.sol",
  "compiler": {
    "name": "solc",
    "version": "0.8.6+commit.11564f7e.Emscripten.clang"
  },
  "schemaVersion": "3.4.7",
  "updatedAt": "2022-07-10T17:22:01.507Z",
  "networkType": "ethereum",
  "devdoc": {
    "kind": "dev",
    "methods": {},
    "version": 1
  },
  "userdoc": {
    "kind": "user",
    "methods": {},
    "version": 1
  }
}